:020000001BC023
:10000200FECFFDCFFCCFFBCFFACFF9CFF8CFF7CFA2
:10001200F6CFF5CFF4CFF3CFF2CFF1CFF0CFEFCFD2
:10002200EECFEDCFECCFEBCF0000000000000000E0
:10003200000000000000F894EE27ECBBF1E0FBBFEB
:10004200EBBFE5BF8DE0A2E0BB27ED938A95E9F710
:1000520080E092E0A0E6ED930197E9F7EFE5EDBFCE
:10006200E2E0EEBFC0EED0E000C065978DE068E050
:1000720070E0EAE2F0E0D7D000E010E020E030E00B
:1000820040E050E0E0E0EABBEBBBEFEFE7BBE0E0D3
:10009200E8BBEFEFE4BBE0E0E5BBE1BBE2BBE3BF03
:1000A200E2BFECBFEFBDEEBDEDBDECBDE7BDE6BD11
:1000B200EBBDEABDE9BDE8BDE2BDE5BDE4BDE3BD22
:1000C200E9BFE5BFE4BFEAB9E0E8E8B9E0E0E0BFD4
:1000D200E6B9EDB9E6BFF801AAE0B0E0C4D0E20F9C
:1000E200F31FEF87F88BFA01AAE0B0E0BCD0AB892E
:1000F200BC89EA0FFB1FED87FE87C89B06C0A0E004
:10010200C899A1E0EC85EA1709F40AC02F5F3F4FB6
:100112002A30E0E03E0724F020E030E00F5F1F4F7E
:10012200E0E0C899E1E0EC87C99B06C0A0E0C9996C
:10013200A1E0EB85EA1709F415C0EF85F889AD85D2
:10014200BE85AE17BF0774F4EB89FC893196EB8B41
:10015200FC8BAB89BC891A972CF0E0E0EB8BEC8B23
:100162004F5F5F4FE0E0C999E1E0EB87CA9B06C0B1
:10017200A0E0CA99A1E0EA85EA1709F409C020E0E3
:1001820030E000E010E0E0E0EB8BEC8B40E050E090
:10019200E0E0CA99E1E0EA8700240216030661F46E
:1001A20000240016010641F4AB89BC89109721F4A2
:1001B20000240416050629F0E0E1F0E0E98BFA8B51
:1001C20003C0E0E0E98BEA8B08831983FE013296D3
:1001D20020833183FE01349640835183EB89FC896D
:1001E200EE83FF83E0E0E887E987A885B985149765
:1001F200C4F4E885F985DE01EE0FFF1FAE0FBF1FC5
:10020200EC91E8BBE885A1E01ED0A989EA0FE5BB25
:10021200A2E3B0E03BD0E885F9853196E887F9871B
:10022200E4CF59CFFFCFAF93BF93DB01AC0FBD1F1C
:1002320005900D928A95E1F7BF91AF910895F195DE
:10024200E195F0400895EE230E2EEA2F19F0EE0FFD
:100252000A94E9F70895FA9FF02DEB9FF00DEA9FBB
:10026200E02DF10D089504D0F6DF0EF4E8DF0895D5
:10027200E894F7FF02C0E3DF6894B7FF06C0B195C8
:10028200A195B04000F8039400FA0895109639F051
:10029200A89580ED97E00197F1F71197C9F70895B6
:00000001FF
